{
    "contractName": "TaskManager",
    "abi": [
        {
            "inputs": [
                {
                    "internalType": "uint256",
                    "name": "_index",
                    "type": "uint256"
                }
            ],
            "name": "acceptTask",
            "outputs": [],
            "stateMutability": "payable",
            "type": "function"
        },
        {
            "inputs": [
                {
                    "internalType": "uint256",
                    "name": "_index",
                    "type": "uint256"
                }
            ],
            "name": "cancelTask",
            "outputs": [],
            "stateMutability": "payable",
            "type": "function"
        },
        {
            "inputs": [
                {
                    "internalType": "uint256",
                    "name": "_index",
                    "type": "uint256"
                }
            ],
            "name": "completeTask",
            "outputs": [],
            "stateMutability": "nonpayable",
            "type": "function"
        },
        {
            "inputs": [
                {
                    "internalType": "uint256",
                    "name": "_price",
                    "type": "uint256"
                }
            ],
            "name": "createTask",
            "outputs": [],
            "stateMutability": "payable",
            "type": "function"
        },
        {
            "inputs": [],
            "name": "getEscrowBalance",
            "outputs": [
                {
                    "internalType": "uint256",
                    "name": "",
                    "type": "uint256"
                }
            ],
            "stateMutability": "view",
            "type": "function"
        },
        {
            "inputs": [
                {
                    "internalType": "uint256",
                    "name": "",
                    "type": "uint256"
                }
            ],
            "name": "tasks",
            "outputs": [
                {
                    "internalType": "address",
                    "name": "requester",
                    "type": "address"
                },
                {
                    "internalType": "uint256",
                    "name": "price",
                    "type": "uint256"
                },
                {
                    "internalType": "address",
                    "name": "executor",
                    "type": "address"
                },
                {
                    "internalType": "bool",
                    "name": "isAccepted",
                    "type": "bool"
                },
                {
                    "internalType": "bool",
                    "name": "isCompleted",
                    "type": "bool"
                }
            ],
            "stateMutability": "view",
            "type": "function"
        }
    ],
    "bytecode": "6080604052600180546001600160a01b0319163017905534801561002257600080fd5b506106b0806100326000396000f3fe6080604052600436106100555760003560e01c80631bf6912d1461005a57806331d669341461006f5780637eec20a8146100825780638d97767214610095578063c56e610e146100f5578063e1e295581461011d575b600080fd5b61006d61006836600461064b565b61013d565b005b61006d61007d36600461064b565b61024f565b61006d61009036600461064b565b61039d565b3480156100a157600080fd5b506100b56100b036600461064b565b610470565b604080516001600160a01b0396871681526020810195909552929094169183019190915215156060820152901515608082015260a0015b60405180910390f35b34801561010157600080fd5b506001546001600160a01b0316316040519081526020016100ec565b34801561012957600080fd5b5061006d61013836600461064b565b6104c5565b600080828154811061015157610151610664565b906000526020600020906003020190508060020160149054906101000a900460ff16156101bd5760405162461bcd60e51b815260206004820152601560248201527415185cdac8185b1c9958591e481858d8d95c1d1959605a1b60448201526064015b60405180910390fd5b8054336001600160a01b039091160361022a5760405162461bcd60e51b815260206004820152602960248201527f546865207265717565737465722063616e6e6f7420616363657074206869732060448201526837bbb7103a30b9b59760b91b60648201526084016101b4565b600201805460ff60a01b1933166001600160a81b031990911617600160a01b17905550565b80341461029e5760405162461bcd60e51b815260206004820152601f60248201527f566f7573206e276176657a2070617320617373657a206427617267656e742e0060448201526064016101b4565b6040805160a08101825233815260208101928352600091810182815260608201838152608083018481528454600181018655948052925160039094027f290decd9548b62a8d60345a988386fc84ba6bc95484008f6362f93160ef3e563810180546001600160a01b039687166001600160a01b031990911617905594517f290decd9548b62a8d60345a988386fc84ba6bc95484008f6362f93160ef3e56486015590517f290decd9548b62a8d60345a988386fc84ba6bc95484008f6362f93160ef3e5659094018054915192511515600160a81b0260ff60a81b19931515600160a01b026001600160a81b031990931695909416949094171716179055565b60008082815481106103b1576103b1610664565b6000918252602090912060039091020180549091506001600160a01b0316331461042e5760405162461bcd60e51b815260206004820152602860248201527f4f6e6c7920746865207265717565737465722063616e2063616e63656c20746860448201526734b9903a30b9b59760c11b60648201526084016101b4565b805460018201546040516001600160a01b039092169181156108fc0291906000818181858888f1935050505015801561046b573d6000803e3d6000fd5b505050565b6000818154811061048057600080fd5b60009182526020909120600390910201805460018201546002909201546001600160a01b0391821693509081169060ff600160a01b8204811691600160a81b90041685565b60008082815481106104d9576104d9610664565b906000526020600020906003020190508060020160149054906101000a900460ff1661053b5760405162461bcd60e51b815260206004820152601160248201527015185cdac81b9bdd081858d8d95c1d1959607a1b60448201526064016101b4565b6002810154600160a81b900460ff16156105905760405162461bcd60e51b815260206004820152601660248201527515185cdac8185b1c9958591e4818dbdb5c1b195d195960521b60448201526064016101b4565b80546001600160a01b031633146105f95760405162461bcd60e51b815260206004820152602760248201527f4f6e6c7920746865206578656375746f722063616e20636f6d706c65746520746044820152666865207461736b60c81b60648201526084016101b4565b60028101805460ff60a81b198116600160a81b1790915560018201546040516001600160a01b039092169181156108fc0291906000818181858888f1935050505015801561046b573d6000803e3d6000fd5b60006020828403121561065d57600080fd5b5035919050565b634e487b7160e01b600052603260045260246000fdfea2646970667358221220e2d430077a6f45dda62121ad0c62901c6b6980bf50951e861b6196584f1803b764736f6c63430008130033",
    "sourcePath": "/home/n2l/Bureau/project07/taskturtle/contracts/smartcontract.sol",
    "compiler": {
        "name": "solc",
        "version": "0.8.19+commit.7dd6d404"
    },
    "functionHashes": {
        "acceptTask(uint256)": "1bf6912d",
        "cancelTask(uint256)": "7eec20a8",
        "completeTask(uint256)": "e1e29558",
        "createTask(uint256)": "31d66934",
        "getEscrowBalance()": "c56e610e",
        "tasks(uint256)": "8d977672"
    },
    "gasEstimates": {
        "creation": {
            "codeDepositCost": "342400",
            "executionCost": "24615",
            "totalCost": "367015"
        },
        "external": {
            "acceptTask(uint256)": "31008",
            "cancelTask(uint256)": "infinite",
            "completeTask(uint256)": "infinite",
            "createTask(uint256)": "95323",
            "getEscrowBalance()": "4964",
            "tasks(uint256)": "9060"
        }
    }
}